:020000040000FA
:100000000C9462070C9493070C9493070C94930739
:100010000C9493070C9493070C9493070C949307F8
:100020000C9493070C9493070C9493070C949307E8
:100030000C9493070C9493070C9493070C949307D8
:100040000C9493070C9493070C9493070C949307C8
:100050000C9493070C9493070C9493070C945D1CD9
:100060000C9493070C94D11C0C94A71C0C9493072C
:100070000C9493070C9493070C9493070C94930798
:100080000C9493070C9493070C9493070C94930788
:100090000C9493070C9493070C9493070C94071DEE
:1000A0000C9493070C9493070C9493070C94930768
:1000B0000C9493070C9493070C9493070C94930758
:1000C0000C9493070C9493070C9493070C94930748
:1000D0000C9493070C9493070C9493070C94930738
:1000E0000C9493070C94F6070C94E7170C941208E1
:1000F0000C9403100C945D090C94B6080C94D80869
:100100000C94E1070C9495140C941C080C94CB07E8
:100110000C94D20E0C9400080C94DD070C94A708E4
:100120000C9410090C94B60E0C94FC070C946D15ED
:100130000C94390C0C940E080C94C6070C949E1B5E
:100140000C9451190C9404080C94C61B0C94F207DF
:100150000C94E5070C947A080C940A080C94EC07AC
:100160000C94E9070C9418080C9495070C94C60E8F
:100170000C94CA080C94271E0C940B0D0C94C91BEC
:100180000C94B11B0C946A0D0C940A100C94C51BB2
:1001900000000000003E5B4F5B3E3E6B4F6B3E1C21
:1001A0003E7C3E1C183C7E3C181C577D571C1C5E38
:1001B0007F5E1C00183C1800FFE7C3E7FF0018240F
:1001C0001800FFE7DBE7FF30483A060E26297929B9
:1001D00026407F050507407F05253F5A3CE73C5AEE
:1001E0007F3E1C1C08081C1C3E7F14227F22145FCB
:1001F0005F005F5F06097F017F006689956A606026
:1002000060606094A2FFA29408047E040810207E1F
:10021000201008082A1C08081C2A08081E101010A4
:10022000100C1E0C1E0C30383E3830060E3E0E06EA
:10023000000000000000005F00000007000700143D
:100240007F147F14242A7F2A1223130864623649FC
:100250005620500008070300001C224100004122E4
:100260001C002A1C7F1C2A08083E080800807030E9
:100270000008080808080000606000201008040258
:100280003E5149453E00427F40007249494946215E
:1002900041494D331814127F1027454545393C4AD2
:1002A00049493141211109073649494936464949E9
:1002B000291E000014000000403400000008142231
:1002C000411414141414004122140802015909069F
:1002D0003E415D594E7C1211127C7F494949363EA0
:1002E000414141227F4141413E7F494949417F0986
:1002F0000909013E414151737F0808087F00417F91
:1003000041002040413F017F081422417F4040408E
:10031000407F021C027F7F0408107F3E4141413E26
:100320007F090909063E4151215E7F0919294626A8
:100330004949493203017F01033F4040403F1F20AC
:1003400040201F3F4038403F631408146303047883
:1003500004036159494D43007F41414102040810A3
:1003600020004141417F04020102044040404040DE
:10037000000307080020545478407F28444438384C
:1003800044444428384444287F38545454180008BE
:100390007E090218A4A49C787F0804047800447D98
:1003A00040002040403D007F1028440000417F4035
:1003B000007C047804787C08040478384444443889
:1003C000FC1824241818242418FC7C080404084869
:1003D0005454542404043F44243C4040207C1C20BA
:1003E00040201C3C4030403C44281028444C909015
:1003F000907C4464544C440008364100000077006F
:1004000000004136080002010204023C2623263C7B
:100410001EA1A161123A4040207A38545455592106
:1004200055557941225454784221555478402054EE
:100430005579400C1E52721239555555593954543C
:10044000545939555454580000457C410002457DAB
:10045000420001457C407D1211127DF0282528F0D4
:100460007C545545002054547C547C0A097F493201
:10047000494949323A4444443A324A4848303A4178
:1004800041217A3A42402078009DA0A07D3D424221
:10049000423D3D4040403D3C24FF2424487E4943AA
:1004A000662B2FFC2F2BFF0929F620C0887E09031D
:1004B00020545479410000447D413048484A323844
:1004C0004040227A007A0A0A727D0D19317D262970
:1004D000292F28262929292630484D402038080868
:1004E000080808080808382F10C8ACBA2F1028349C
:1004F000FA00007B000008142A142222142A14088F
:100500005500550055AA55AA55AAFF55FF55FF009D
:100510000000FF00101010FF00141414FF00101052
:10052000FF00FF1010F010F0141414FC001414F766
:1005300000FF0000FF00FF1414F404FC1414171053
:100540001F10101F101F1414141F00101010F000A3
:100550000000001F101010101F10101010F01000DD
:100560000000FF101010101010101010FF100000ED
:1005700000FF140000FF00FF00001F10170000FC28
:1005800004F414141710171414F404F40000FF00FA
:10059000F714141414141414F700F7141414171483
:1005A00010101F101F141414F4141010F010F00089
:1005B000001F101F0000001F14000000FC140000AA
:1005C000F010F01010FF10FF141414FF141010108E
:1005D0001F00000000F010FFFFFFFFFFF0F0F0F041
:1005E000F0FFFFFF0000000000FFFF0F0F0F0F0FD5
:1005F0003844443844FC4A4A4A347E020206060221
:100600007E027E0263554941633844443C04407E87
:10061000201E2006027E020299A5E7A5991C2A4900
:100620002A1C4C7201724C304A4D4D30304878488B
:1006300030BC625A463D3E494949007E0101017E77
:100640002A2A2A2A2A44445F444440514A444040CA
:10065000444A51400000FF0103E080FF0000080809
:100660006B6B083612362436060F090F0600001889
:10067000180000001010003040FF0101001F0101B0
:100680001E00191D1712003C3C3C3C0000000000FD
:1006900011007F96290001007F9628003A0155C07D
:1006A000021010C10141C50400228040360168B02B
:1006B0000100B102B011B40102B60302023BB7015E
:1006C000C63A0155F704A9512C82B701C6E8084083
:1006D0008A00002919A533C0020D0DC1024300C2D2
:1006E0000100C50400480048B40100B60302023B03
:1006F000E00F0F211C0B0E08499838091103141044
:1007000000E10F0F2F2B0C0E06477637071104233D
:100710001E00B00100B30402000000B40100D003C9
:10072000074218D103000710D2020102D3020102CE
:10073000D4020102C005123B000211C1031010884F
:10074000C50103C60102C80C0032364506163775CE
:1007500077540C00CC0100F603010100CF030081A7
:1007600030ED0464031281E803851078CB05392C41
:10077000003402F70120EA020000B00100B10200DB
:100780001BB40100C00121C10111C5023F3CC701DA
:10079000B5360148F20100260101E00F0F26240BB7
:1007A0000E0954A8460C17090F0700E10F00191B8A
:1007B0000410072A473903060630380F360100B8FF
:1007C0000101C0010EB00100C10410100202C006F8
:1007D000003500000102C50104D2020104CA010073
:1007E000EA0180B903FF83577F967F96B60125C043
:1007F000065050013C1E08B4070240002A2A0D781A
:100800007F01F20B1616030808080810041616FDDF
:1008100003110235B2050C0C003333B70135BB01AF
:100820002BC00104C20201FFC30111C40120C60193
:100830000FD002A4A1E00ED000050E150D374347DE
:100840000915121619E10ED000050D0C062D4440B5
:100850000E1C1816193A01557F0A06000700B1024E
:100860000012B40102B60400202700CA0101CB0126
:1008700003C001137F14C501CCC60100C70104C821
:100880000103CC0106CD011CF9021515F3030A0280
:100890000AF603011000FA00FB00E2031E0254E016
:1008A00001017F0AE001037F0A01007F64E6030380
:1008B000FFFFB0072400031F01DF00B40803A000FE
:1008C0002E30000F00B607020D0010100008BA010C
:1008D0000FB8020701F001007F01280011007F64BA
:1008E0002900BE0606F001F00000D0010DB00103A2
:1008F000E2013FC00122E20100B00100C0010AB0E4
:1009000001000000000000000000000000000000E6
:100910000000FFFF0F000004006208000808000349
:10092000000C01030B5A020306090303171004030A
:10093000002305030017060309630703090C0803D6
:100940000C100903322210001600110001011200E0
:100950000000130001000001300301013702030110
:10096000000D800200610201B0C1FFFF32000100F2
:1009700000010200000103003010090001000C001A
:100980000000900000800F00000010020000110223
:10099000EF001202000013028F01000500000105A4
:1009A000000002055F000104010004040000FFFFD5
:1009B000320007000001FFFF3200000200000102C8
:1009C0000000000000000000000000000000000027
:1009D0000100A4000100FFFF0A00600000270800DA
:1009E00008083000140231001537320004063300C5
:1009F000160E340011223500001536000785370029
:100A0000071438000314390020009000150010006E
:100A1000100411003702290046002A004600070092
:100A200000001200890113000011FFFF9600120060
:100A3000B9010100000102000002030030100900AA
:100A400001000A0000000D0000000E0030006100EF
:100A500001006A00000080000000810000008200A8
:100A60005F009200000193000107FFFF50000700A4
:100A70000001E500F078010000010200000203001F
:100A80003010040000000500000008000702090003
:100A900000000A0000000C0000000D0000000F0024
:100AA00000001000000011000700120000001300F9
:100AB000000007000100FFFFC800100090161100A1
:100AC0002702FFFF320012000D00FFFF320013006B
:100AD000001229000A002B000D00FFFF3200200049
:100AE000000021000000300000003100040432004A
:100AF00003003500050436000808370007043800F5
:100B00000303390007073C0004053D0008086000A6
:100B10000027610001006A000000800000008100E1
:100B200000008200000083000000840000008500B7
:100B30000000900010009200000007003301E50063
:100B40000080000001000100000102000007030016
:100B500030100400000008000202090000000A0032
:100B600000000C0000000D0000000F00000010004D
:100B70000000110007001200000013000000FFFF3A
:100B800032001000B01711000700FFFF0A0012002A
:100B90003A01FFFF0A001300001A29000C00FFFFB2
:100BA0000A00300000003100050532000400350065
:100BB000060036000707370005013800020039003B
:100BC00007073C0004073D000708600000A761001C
:100BD00001006A00000021000000200000008000E9
:100BE00000008100000082000000830000008400FB
:100BF00000008500000090001000920000009300AB
:100C00000300950010019700000098000000070005
:100C10007301FFFF32000100000102000007030022
:100C2000301008000203090000000A00080010004C
:100C30000000110005001200000013000000FFFF7B
:100C400064001000B012FFFF320011000700FFFF28
:100C5000320012008C001300001729002000FFFF53
:100C60003200300000003100060132000101350081
:100C7000060136000302370000003800070739007C
:100C800004023C0006013D000301600000A7610072
:100C900001009000300007003301FFFF3200150013
:100CA00030009A00100011002000100028341200BB
:100CB000020013003810FFFF280012001200FFFF8F
:100CC00028001000203413004530FFFF460030009C
:100CD0000000310002043200070333000403340033
:100CE000040035000104360007073700050338000B
:100CF0001006390010060100000102000003030085
:100D00003010080008080A00080060000027610091
:100D1000010090003E019200000193000001A0003C
:100D20000030A300100007000100070021000700A9
:100D30002300070033000700330111001A001200DE
:100D4000213113006C001400494210000008FFFF1D
:100D50000A0011001A01FFFF0A0011001A03FFFF29
:100D60000A0011001A07FFFF0A0011001A0FFFFF07
:100D70000A0011003A0FFFFF1E00010028010200C7
:100D800000010300301007001210080003030B00DD
:100D900000110C0000000F00011815002000500089
:100DA00001015100030652000804530000005400E2
:100DB00005065500060456000303570003035800B8
:100DC00010005900001007001200FFFF2800070064
:100DD00013000700170000002200250028002B0048
:100DE0002E003100340002010000050108010B0152
:100DF00005050505070508080808020202020A0A97
:100E000008080404040401010101010101010303B4
:100E1000030303030303040707070C0C0C0C0C0C5F
:100E20000C0C0202020206060606060606060B0B5C
:100E30000B0B0B0B0B0B010210202008081020409D
:100E4000102040800201020108040201010204088E
:100E5000102040808040201008040201800402011C
:100E60008040201008040201080402010102040865
:100E700010204080010204081020408000000A0B6E
:100E800002090C0D0E080703040100000000000019
:100E90000000000000000000000000000000000052
:100EA000000000000000000012111000000000000F
:100EB0000000000000000000000000000000000032
:100EC0000000271E11241FBECFEFD1E2DEBFCDBF31
:100ED00000E00CBF12E0A0E0B2E0E4E0FEE400E0DD
:100EE0000BBF02C007900D92AC3BB107D9F724E0CD
:100EF000ACEBB2E001C01D92A431B207E1F717E0FC
:100F0000C2E6D7E000E006C021970109802FFE016C
:100F10000E94F326C136D10780E00807A9F70E9496
:100F20007A1E0C9400270C9400000895282F30E0BE
:100F3000F901E458F14F9491F901EA5CF14F4491C1
:100F40002051324FF9012491222309F435C099230D
:100F500011F191509231F8F4E92FF0E08827EC5428
:100F6000F84F8F4F0C94F326E507E907C607DD0716
:100F7000E107CB07EC07F207F607FC0700080408B7
:100F80000A080E08CB07120818081C088091800078
:100F90008F7780938000E22FF0E0EE0FFF1FEA5280
:100FA000F24FA591B4918FB7F894EC91611148C0BC
:100FB00040954E234C938FBF0895809180008F7D84
:100FC000E8CF80918000877FE4CF84B58F7784BDA0
:100FD000E2CF84B58F7DFBCF8091B0008F77809377
:100FE000B000D9CF8091B0008F7DF9CF8091900073
:100FF0008F7780939000CFCF809190008F7DF9CF35
:1010000080919000877FF5CF8091A0008F778093AB
:10101000A000C1CF8091A0008F7DF9CF8091A0006A
:10102000877FF5CF809120018F7780932001B3CF08
:10103000809120018F7DF9CF80912001877FF5CFAE
:101040004E2BB8CF3FB7F8948091390390913A0373
:10105000A0913B03B0913C0326B5A89B05C02F3F50
:1010600019F00196A11DB11D3FBFBA2FA92F982FCE
:101070008827BC01CD01620F711D811D911D42E0C9
:10108000660F771F881F991F4A95D1F708958F9291
:101090009F92AF92BF92CF92DF92EF92FF926B013D
:1010A0007C010E9422084B015C01C114D104E104BF
:1010B000F104B9F00E942208681979098A099B098C
:1010C000683E73408105910580F321E0C21AD10882
:1010D000E108F10888EE880E83E0981EA11CB11C7F
:1010E000E4CFFF90EF90DF90CF90BF90AF909F90B4
:1010F0008F900895AF92BF92CF92DF92EF92FF92BE
:101100000F931F93CF93DF936C017B018B01040F2F
:10111000151FEB015E01AE18BF08C017D10759F0CB
:101120006991D601ED91FC910190F081E02DC6010D
:101130001995892B79F7C501DF91CF911F910F91F7
:10114000FF90EF90DF90CF90BF90AF900895FC019B
:10115000538D448D252F30E0842F90E0821B930B1C
:10116000541710F0CF96089501970895FC01918DC2
:10117000828D981761F0A28DAE0FBF2FB11D5D96C5
:101180008C91928D9F5F9F73928F90E008958FEF67
:101190009FEF0895FC01918D828D981731F0828D1B
:1011A000E80FF11D858D90E008958FEF9FEF089572
:1011B000FC01918D228D892F90E0805C9F4F821BD6
:1011C00091098F739927089582E493E00E94D808CB
:1011D00021E0892B09F420E0822F0895FC01A48DE1
:1011E000A80FB92FB11DA35ABF4F2C91848D90E049
:1011F00001968F739927848FA689B7892C93A0892C
:10120000B1898C91837080648C93938D848D9813B5
:1012100006C00288F389E02D80818F7D8083089548
:10122000EF92FF920F931F93CF93DF93EC0181E036
:10123000888F9B8D8C8D98131AC0E889F9898081DD
:1012400085FF15C09FB7F894EE89FF896083E88910
:10125000F98980818370806480839FBF81E090E002
:10126000DF91CF911F910F91FF90EF900895F62E8F
:101270000B8D10E00F5F1F4F0F731127E02E8C8D29
:101280008E110CC00FB607FCFACFE889F98980816E
:1012900085FFF5CFCE010E94EE08F1CFEB8DEC0F6C
:1012A000FD2FF11DE35AFF4FF0829FB7F8940B8F8B
:1012B000EA89FB8980818062CFCFCF93DF93EC01F5
:1012C000888D8823B9F0AA89BB89E889F9898C912E
:1012D00085FD03C0808186FD0DC00FB607FCF7CFEA
:1012E0008C9185FFF2CF808185FFEDCFCE010E94EA
:1012F000EE08E9CFDF91CF91089580E090E0892B4F
:1013000029F00E94E40881110E94000080E090E032
:10131000892B49F080E090E0892B29F00E940000A1
:1013200081110E94000080E090E0892B49F080E06C
:1013300090E0892B29F00E94000081110E9400009A
:1013400080E090E0892B49F080E090E0892B29F043
:101350000E94000081110C94000008952091E30286
:10136000260F3327331F21323105ECF42091070378
:10137000FC0190E080E0243069F082E00895A091C3
:10138000E3022191AC014D535D4FA40FB52FB11D68
:101390002C930196861798F38091E302680F60936F
:1013A000E30280E0089581E008958FEF9FEF0895B4
:1013B0008FEF9FEF08958091BC0290E09195819509
:1013C00091090895CF93DF93CB01EA01642F0E9426
:1013D000AE09CE01DF91CF910895CF93DF931F9295
:1013E000CDB7DEB7698361E0CE0101960E94AE09F8
:1013F00081E090E00F90DF91CF9108950895FC0176
:101400006370668B8481958126813781613039F0E4
:10141000633029F091878087338722870895318749
:1014200020879387828708952F923F924F925F92F1
:101430006F927F928F929F92AF92BF92CF92DF92E4
:10144000EF92FF920F931F93CF93DF93CDB7DEB749
:101450006A970FB6F894DEBF0FBECDBF9A8F898F03
:101460007A8369834A01D22E18870F833701BC2CF7
:10147000DC0159962D913C915A972115310509F0BF
:1014800015C118968D919C911997681779070CF0E2
:10149000D7C11A968D919C91481759070CF0D0C16D
:1014A0004C2C512CB6E0CB9E600D711D11247C8715
:1014B0006B87161617060CF0C3C1EA2DF0E0FA8709
:1014C000E98793E0EE0FFF1F9A95E1F7F88BEF871E
:1014D000CF01840F951F181619060CF0B1C1A98D04
:1014E000BA8D58968C91811104C0BFEABD1508F4DD
:1014F000D394A98DBA8DED91FC9111970284F38557
:10150000E02DCD011995B5E0DB9EC0011124E981E4
:10151000FA81FC83EB83312C212C9C0120573E4F18
:10152000388F2F8B4A2D50E05E8B4D8BEF89F88DD5
:10153000E20DF31D44919E828D82D12CC12C6981D4
:101540007A81620D731D7A8B698B842F90E09C8B5E
:101550008B8BE98DFA8DA081B18140FF82C0F1E0D3
:10156000BF126FC0AF126DC01C96ED91FC912F8120
:101570003885A4014C0D5D1D69897A89898D9A8D04
:101580001995EB89FC89F595E7954E2F5FEFC51A04
:10159000D50A6D817E818D899E89680F791F7E8332
:1015A0006D8398E0C916D10481F6AFEF2A1A3A0A82
:1015B000EB81FC81E40DF51DFC83EB83F5E02F1638
:1015C000310409F0B3CF2F81388526153705B9F0DE
:1015D000A98DBA8DED91FC91B1E0BB1257C0AB1251
:1015E00055C069817A816B5F7F4F0088F189E02D5A
:1015F000830128E030E0A401898D9A8D1995A98D89
:10160000BA8DED91FC9111970688F789E02DCD01F7
:101610006A960FB6F894DEBF0FBECDBFDF91CF91B3
:101620001F910F91FF90EF90DF90CF90BF90AF9000
:101630009F908F907F906F905F904F903F902F90F2
:1016400019941E96ED91FC91EF80F88409851A8516
:1016500092014D815E816B817C81898D9A8D199576
:1016600090CF2F8138852615370509F48ACF31E0D0
:10167000B31207C0A31205C01C96ED91FC91930113
:1016800078CF1E96ED91FC917301E0CF6B857C8540
:10169000641975090684F785E02D73010F85188993
:1016A0009201A401898D9A8D1995A9CFF9013496DB
:1016B0009491329745915491D91AB7E0DB9E400D31
:1016C000511D1124F901259134913C8B2B8BFA018A
:1016D00025903490FA013296749031963491398B7A
:1016E000329664903196449041E04C1518F04A15BA
:1016F00008F07FC0662D062C000C770B7C836B8373
:10170000842D042C000C990B9E838D83A98DBA8D9A
:10171000ED91FC9111970284F385E02DCD0119958F
:10172000512CD12CC12CEA2DF0E0FA87E9872B2D22
:1017300030E03C872B87A401440D511D47FC5A958E
:10174000588F4F8B69817A81660D711D67FC7A9580
:101750007E876D877989C71608F051CF2C2D30E030
:101760004D815E81420F531FA985BA854A9FC001F2
:101770004B9F900D5A9F900D1124FC01E80DF91D0F
:10178000F88BEF87852D612C4F89588D420F531FA1
:101790005E8B4D8B671408F050C044244394480E70
:1017A000877041F4C1010196EB89FC89E20DF31DBC
:1017B000D4901C01D7FE19C0A98DBA8DED91FC9172
:1017C000662D70E0B1E0BB1219C0AB1217C02D85B9
:1017D0003E85620F731F0484F585E02D2F813885C7
:1017E0004D895E89898D9A8D1995DD0C6394842DC0
:1017F000D1CF1E821D821C821B8288CF4B815C81CF
:10180000640F751FAB85BC856A9FC0016B9F900DEF
:101810007A9F900D112469817A81680F791F06845F
:10182000F785E02DEF80F88409851A859D014F85A5
:101830005889898D9A8D1995D8CF570CC3948ACF22
:101840006A960FB6F894DEBF0FBECDBFDF91CF9181
:101850001F910F91FF90EF90DF90CF90BF90AF90CE
:101860009F908F907F906F905F904F903F902F90C0
:1018700008958F929F92AF92CF92EF92FF920F9323
:101880001F93CF93DF93EC01262F898D9A8D0097BC
:1018900009F051C06A30D1F41D861C868D8948E05C
:1018A000849F900111248E859F85820F931F9F87AF
:1018B0008E8781E090E0DF91CF911F910F91FF9093
:1018C000EF90CF90AF909F908F9008956D3089F3F7
:1018D000CC88AD888F898823C1F08C859D8536E0C2
:1018E000C39E800D911D11244885598548175907BD
:1018F00064F44E855F851D861C8638E0A39EC0017A
:101900001124840F951F9F878E87EA88FB8808899A
:1019100019894E855F856C857D85CE010E94140AEC
:101920002C898C859D8546E0249F800D911D112476
:101930009D878C87BECF6A3069F41D861C86FC01AA
:101940003896E4912D898E859F85E29F800D911DAB
:101950001124ADCF6D3009F4ACCFFC013496349135
:10196000631708F4A6CF3296E491E61708F4A1CFE6
:10197000FC01329685909490462F431B342F47E00C
:10198000349F800C911C1124F401329634913196CD
:10199000E4913323A9F1EE2399F1CC88F401359633
:1019A000E491AD884F89442301F10E2E000CFF0B0A
:1019B000E30FF11DCE9EA001CF9E500D11246C852A
:1019C0007D85460F571F68857985641775076CF408
:1019D0004E855F851D861C86FC013896E491AE9E7F
:1019E000400D511D11245F874E87EA88FB880889C6
:1019F00019894E855F856C857D85CE010E94140A0C
:101A0000F4013496E4912C898C859D85E29F800DAC
:101A1000911D11248DCF6F927F928F929F92AF92E2
:101A2000BF92CF92DF92EF92FF920F931F93CF93CB
:101A3000DF93EC016B015A0139014801E881F9811A
:101A40000284F385E02D1995E881F9810288F389F4
:101A5000E02D87019301A501B601CE011995A501DD
:101A6000480D591D41505109E881F9810288F389D7
:101A7000E02D9301B601CE011995E881F981008826
:101A8000F189E02D9401A501B601CE011995C60C8E
:101A9000D71CB60161507109E881F9810088F1898C
:101AA000E02D9401A501CE011995E881F981068800
:101AB000F789E02DCE01DF91CF911F910F91FF901B
:101AC000EF90DF90CF90BF90AF909F908F907F90DE
:101AD0006F9019946F927F928F929F92AF92BF9264
:101AE000CF92DF92EF92FF920F931F93CF93DF93EA
:101AF0005C01EB016A01490138018701DC01ED91CC
:101B0000FC916217730719F5641675062CF0962D73
:101B1000872D3A01C92ED82E9601261937092F5F35
:101B20003F4F048CF58DE02DA301BE01C501199531
:101B3000DF91CF911F910F91FF90EF90DF90CF90A9
:101B4000BF90AF909F908F907F906F9008954615B3
:101B5000570591F42617370724F0892D4B01C22F22
:101B6000D82F9E01281939092F5F3F4F068CF78D1A
:101B7000E02DA601B401DACF0284F385E02D19959A
:101B8000D501ED91FC910488F589E02D8301940144
:101B9000A601BE01C5011995D501ED91FC910688FC
:101BA000F789E02DC501DF91CF911F910F91FF9033
:101BB000EF90DF90CF90BF90AF909F908F907F90ED
:101BC0006F901994EF92FF920F931F93DC011A9676
:101BD0000D911C911B9718962D913C911997ED91A1
:101BE000FC9100A0F1A1E02D7B0150E040E070E00D
:101BF00060E019951F910F91FF90EF9008954F921B
:101C00005F926F927F928F929F92AF92BF92CF928C
:101C1000DF92EF92FF920F931F93CF93DF936C01AC
:101C20002B015A0139014801DC01ED91FC9102843C
:101C3000F385E02D1995E201640C751CD601ED9138
:101C4000FC91C615D7055CF40088F189E02D870169
:101C50009401A501BE01C60119952196EFCF068812
:101C6000F789E02DC601DF91CF911F910F91FF9071
:101C7000EF90DF90CF90BF90AF909F908F907F902C
:101C80006F905F904F9019948F929F92AF92BF92F6
:101C9000CF92DF92EF92FF920F931F93CF93DF9338
:101CA000EC015B014A016901E881F9810284F38555
:101CB000E02D199595012C0D3D1D21503109E8812C
:101CC000F9810488F589E02D78018401A401B5012A
:101CD000CE011995E881F9810688F789E02DCE01BA
:101CE000DF91CF911F910F91FF90EF90DF90CF90F8
:101CF000BF90AF909F908F9019948F929F92AF92C8
:101D0000BF92CF92DF92EF92FF920F931F93CF93E8
:101D1000DF93EC015B014A0169017801E881F981F7
:101D20000284F385E02D1995C80CD91C8601015059
:101D30001109E881F9810488F589E02D9501A40154
:101D4000B501CE011995E881F9810688F789E02D62
:101D5000CE01DF91CF911F910F91FF90EF90DF9017
:101D6000CF90BF90AF909F908F901994EF92FF9279
:101D70000F931F93DC01ED91FC9100A0F1A1E02DE8
:101D800019951F910F91FF90EF9008950F931F9356
:101D9000DC01ED91FC91068CF78DE02D19951F91DA
:101DA0000F9108950F931F93DC01ED91FC91048C2A
:101DB000F58DE02D19951F910F9108952F923F9267
:101DC0004F925F926F927F928F929F92AF92BF924B
:101DD000CF92DF92EF92FF920F931F93CF93DF93F7
:101DE00000D000D000D0CDB7DEB73C017C836B8340
:101DF000598748872D83280181E090E06C01C41A3F
:101E0000D50A1A01319421943108220C331C98010F
:101E10002F5F3F4F3A832983F12CE12C8824839450
:101E2000912CCB0101969F838E8328853985E216FC
:101E3000F3060CF06DC0A884B984D7FC09C0590121
:101E400031E0A31AB10882E0280E311CC20CD31C69
:101E50009FEFE91AF90A22E0820E911CC80CD91CE6
:101E6000AE14BF0444F4888599858A159B05D9F47E
:101E7000B986A886DACF9501220F331F4B815C818A
:101E80004A195B099D81913029F589819A81280F32
:101E9000391F0FEF17E0B701660D771D8FED93E047
:101EA0000E94D20EE0CF9D81913039F594012250ED
:101EB0003109240D351D68857985660D771D0FEF75
:101EC00017E04E815F814E195F098FED93E00E940C
:101ED000D20ECECF89819A81280F391F0FEF17E0DC
:101EE000B3016E197F098FED93E00E94D20E288511
:101EF00039852A153B0509F4BBCF940122503109DD
:101F0000240D351DB30188859985681B790BD7CFC2
:101F100029960FB6F894DEBF0FBECDBFDF91CF91EB
:101F20001F910F91FF90EF90DF90CF90BF90AF90F7
:101F30009F908F907F906F905F904F903F902F90E9
:101F40000895AF92BF92CF92DF92EF92FF920F93DC
:101F50001F93CF93DF935C01EB016C0188E3C80E04
:101F6000D11CEE24EA9487E0F82E0AEA10E026E27B
:101F700030E0AB01B6018FED93E00E94B60EE8961B
:101F800009E310E021E048E350E0BE01C501835AB7
:101F90009F4F0E94DE0E22E048E350E0BE01C601E2
:101FA0000E94DE0EDF91CF911F910F91FF90EF9075
:101FB000DF90CF90BF90AF9008950F931F93CF9372
:101FC000DF932091400330914103890102591F4F53
:101FD000080F191FC0913E03D0913F03C60FD71FB2
:101FE000C555D109820F931FBE01895B91090E94DB
:101FF000A10FBE01C8018B549109DF91CF911F91B0
:102000000F910C94A10FDC01ED91FC910084F185FE
:10201000E02D19942F923F924F925F926F927F9290
:102020008F929F92AF92BF92CF92DF92EF92FF92E8
:102030000F931F93CF93DF9300D000D0CDB7DEB7BF
:102040003C016A013E832D83FC82EB825801A41A75
:10205000B50AB7FE03C0B194A194B1088D809E80EB
:10206000861A970A97FE03C09194819491088A1466
:102070009B045CF0902F812F0D811E819D838E83A8
:102080009C2D8D2D6B01692F782F0C151D055CF093
:102090009D818E817E836D83692F782F902F812F74
:1020A0008601C92ED82E1601201A310A2B012D8146
:1020B0003E81421A530A57FE03C05194419451087D
:1020C000710137FE03C03FEFE31AF30AF594E7947A
:1020D0008D819E81861797075CF5A1E0B0E0BA83F9
:1020E000A983C016D1064CF1D301ED91FC91048473
:1020F000F585E02D2B813C81A8016D817E818A14BC
:102100009B041CF04D815E81B801C3011995E41850
:10211000F508F7FE0AC02D813E8189819A81280F3A
:10212000391F3E832D83E20CF31C0F5F1F4FD9CF65
:102130002FEF3FEF3A832983D4CF26960FB6F8943A
:10214000DEBF0FBECDBFDF91CF911F910F91FF90EA
:10215000EF90DF90CF90BF90AF909F908F907F9047
:102160006F905F904F903F902F9008950F931F9323
:10217000CF93DF93EC018B01FE0184913196649142
:1021800022968F3799F470E090E080E00E94470833
:1021900060E070E06E5F7F4F061B170B1016110694
:1021A0005CF3DF91CF911F910F9108958B988A98DE
:1021B00090910201977890930201A5989EB1977C27
:1021C0009EB94091020190E09C0155E0220F331F1F
:1021D0005A95E1F72076242B209302014EB19C0101
:1021E000220F331F220F331F2073242B2EB944B329
:1021F0009C01220F331F2072242B24BB4EB19C0163
:1022000035952795359527952870242B2EB9209143
:102210000201A3E095958795AA95E1F78871822B35
:10222000809302018998899A50E040E0461708F0AF
:1022300045C0FE01E40FF51FE4918A9A80910201E6
:10224000877880930201A5988EB1877C8EB97091B2
:1022500002018E2F90E09C01E5E0220F331FEA95EA
:10226000E1F72076272B209302017EB19C01220FFB
:10227000331F220F331F2073272B2EB974B39C01F9
:10228000220F331F2072272B24BB7EB19C01359572
:102290002795359527952870272B2EB9E0910201B7
:1022A00023E0959587952A95E1F788718E2B809389
:1022B00002018998899A4F5F5F4FB8CFC60FD11D31
:1022C0008B9A67CF8B988A98209102012778209368
:1022D0000201A5982EB1277C2EB970910201292FF9
:1022E00030E0F901A5E0EE0FFF1FAA95E1F7E076D7
:1022F000E72BE09302017EB1F901EE0FFF1FEE0F15
:10230000FF1FE073E72BEEB974B3F901EE0FFF1F67
:10231000E072E72BE4BB7EB1F901F595E795F59501
:10232000E795E870E72BEEB970910201E3E035958F
:102330002795EA95E1F72871272B209302018998C8
:10234000899A20910201277820930201A5982EB145
:10235000277C2EB9709102019C01F5E0880F991F2E
:10236000FA95E1F78076872B809302017EB1C9014F
:10237000880F991F880F991F8073872B8EB974B3AC
:10238000C901880F991F8072872B84BB7EB1C90158
:1023900095958795959587958870872B8EB98091AF
:1023A0000201F3E035952795FA95E1F72871282B7E
:1023B000209302018998899A8A9AFA01615008F457
:1023C0003EC0819190910201977890930201A59867
:1023D0009EB1977C9EB94091020190E09C0155E02E
:1023E000220F331F5A95E1F72076242B2093020108
:1023F0004EB19C01220F331F220F331F2073242B59
:102400002EB944B39C01220F331F2072242B24BB0E
:102410004EB19C0135952795359527952870242B2D
:102420002EB92091020133E0959587953A95E1F711
:102430008871822B809302018998899ABFCF8B9AE9
:1024400008958B988A98E2E0F1E020812778208334
:10245000A5982EB1277C2EB9A081292F30E0A901A3
:10246000B5E0440F551FBA95E1F740764A2B4083FB
:10247000AEB1A901440F551F440F551F40734A2B9D
:102480004EB9A4B3A901440F551F40724A2B44BB57
:10249000AEB1A901559547955595479548704A2B7A
:1024A0004EB9408153E0359527955A95E1F728714B
:1024B000242B20838998899A208127782083A598C6
:1024C0002EB1277C2EB940819C01A5E0880F991F71
:1024D000AA95E1F78076842B80834EB1C901880FDD
:1024E000991F880F991F8073842B8EB944B3C9013B
:1024F000880F991F8072842B84BB4EB1C9019595BA
:102500008795959587958870842B8EB98081B3E0E7
:1025100035952795BA95E1F72871282B208389985E
:10252000899A8A9A808187788083A5988EB1877CE2
:102530008EB94081872F90E09C0155E0220F331F18
:102540005A95E1F72076242B20834EB19C01220F6F
:10255000331F220F331F2073242B2EB944B39C0149
:10256000220F331F2072242B24BB4EB19C013595C2
:102570002795359527952870242B2EB92081A3E027
:1025800095958795AA95E1F78871822B8083899824
:10259000899A808187788083A5988EB1877C8EB94F
:1025A0004081CB019B01B5E0220F331FBA95E1F7C3
:1025B0002076242B20834EB19B01220F331F220F44
:1025C000331F2073242B2EB944B39B01220F331FDA
:1025D0002072242B24BB4EB19C013595279535954F
:1025E00027952870242B2EB92081A3E095958795F7
:1025F000AA95E1F78871822B80838998899A8B9AB2
:10260000089581E080933D03E1E0F1E080818867F7
:1026100080839D9A8DB188638DB9809A819A829AC0
:10262000839A849A8B9A889A899A8C9A62E370E04A
:1026300080E090E00E9447088C9864E670E080E0BB
:1026400090E00E9447088C9A64E670E080E090E099
:102650000E94470870E060E080EB90E00C9421124B
:10266000EF92FF920F931F93CF93DF93EC01E62E2F
:1026700080913D03811102C00E9401138B988A98BA
:1026800080910201877880930201A5988EB1877CA2
:102690008EB980910201809302018EB18EB984B30C
:1026A00084BB8EB18EB9809102018093020189981A
:1026B000899A80910201877880930201A5988EB152
:1026C000877C8EB920910201CE0115E0880F991FF9
:1026D0001A95E1F78076822B809302012EB1CE010C
:1026E000880F991F880F991F8073822B8EB924B38E
:1026F000CE01880F991F8072822B84BB2EB1CE0130
:1027000095958795959587958870822B8EB9809140
:10271000020153E0D595C7955A95E1F7C871C82BCA
:10272000C09302018998899A8A9A809101018778D9
:10273000809301019D988DB1877C8DB961E070E037
:1027400080E090E00E94470861E070E080E090E067
:102750000E944708889A889888988898D0910001A4
:102760001CB102B3CCB1F0900001889A61E070E036
:1027700080E090E00E944708889A88988898889816
:10278000409100015CB1E2B39CB1F0910001889AE4
:10279000EA946FEFE612D8CF889A8B9A8091010164
:1027A0008867809301019D9A8DB188638DB984E01B
:1027B000C89F900111242072332788E0F89EB00151
:1027C0001124607C7727262B602F70E07595679524
:1027D00060717727262B612F70E075956795759549
:1027E00067956C707727262B6D2F70E0B5E0759597
:1027F0006795BA95E1F763707727262B64E0969F7B
:10280000C0011124807298E0F99FB0011124607C0E
:10281000862BE695E0718E2B569556955C70852B30
:1028200050E0C5E055954795CA95E1F74370842B74
:10283000922FDF91CF911F910F91FF90EF9008950C
:102840000F931F93CF93DF938C0160E00E943013AE
:10285000EC0161E0C8010E9430138C01BE0190E0E0
:1028600080E0CB017727662730E020E0602B712BDA
:10287000822B932BDF91CF911F910F910895FF929F
:102880000F931F93CF93DF938C0160E00E9430136E
:10289000EC0161E0C8010E943013F82E62E0C8012B
:1028A0000E943013AE0170E060E0742F6627552758
:1028B000442700E030E020E0402B5F29622B732B9F
:1028C000292F30E0C901B0E0A0E08A019B01082B6C
:1028D000192B2A2B3B2BC901B801DF91CF911F91F6
:1028E0000F91FF9008950F931F93CF93DF93EC0107
:1028F0008B01FE0185919491FE013296249665919B
:1029000074918F3F980771F490E080E00E9447082F
:10291000045011091016110664F3DF91CF911F9135
:102920000F9108950E942112F3CFFC01262F358DBF
:10293000868D82958170982F9627692F70E072A3FB
:1029400061A330FF0CC0821307C080E290E050E02A
:1029500040E060E00C94621181E290E0F8CF878D56
:1029600090A1833927E7920741F058F4843521E09C
:10297000920791F080329445C1F4626081E094E066
:1029800012C0863223E99207C1F3893025EB920702
:10299000A1F38532924949F4660F771F660F771FBE
:1029A000636187E090E00C94211281E690E0FBCF18
:1029B0008F929F92AF92BF92CF92DF92EF92FF924F
:1029C0000F931F93CF93DF9300D01F92CDB7DEB745
:1029D0007C014B015A016901FC01878D90A186326F
:1029E000954151F4F701868980FF06C0C801841B18
:1029F000950B81F50F5F1F4FF701858D80FF31C06B
:102A000085A599828A82DB82CC82AE014F5F5F4FBF
:102A100064E090E00E946211F70181A9B982AA8264
:102A20001B830C83AE014F5F5F4F64E090E00E9418
:102A300062110F900F900F900F90DF91CF911F9127
:102A40000F91FF90EF90DF90CF90BF90AF909F904D
:102A50008F9008952617370779F6C80ED91E8A0178
:102A6000CBCFB40187A190A50E942112B501F70137
:102A700081A592A50E942112C814D90419F40A153F
:102A80001B05B9F2F701858D85FF08C0868980FF97
:102A90001EC0102F0027A02AB12A8501B401F7011A
:102AA00085A596A50E942112B501F70181A992A9D9
:102AB0000E942112B601F70187A590A90E94211258
:102AC000B801F70183A994A90E942112B2CFDC2C8E
:102AD000CC248C289D286401E1CF2F923F924F9205
:102AE0005F926F927F928F929F92AF92BF92CF929E
:102AF000DF92EF92FF920F931F93CF93DF9300D05B
:102B00001F921F92CDB7DEB79D838C8380912D03DA
:102B1000882349F0C701880F991F8E739927E1EC2C
:102B2000EE22E82AF92A37FF05C0620F731F31959C
:102B300021953109260F371F77FF02C070E060E052
:102B4000EC81FD8180859185281739070CF4C90136
:102B50006C01C61AD70A17FF05C0400F511F119507
:102B600001951109040F151F57FF02C050E040E006
:102B7000EC81FD8122853385021713070CF498013F
:102B80005901A41AB50A8901015011099C0121506B
:102B900031098C819D810E94D8148B988A98EC8190
:102BA000FD8153A544A5809102018778809302019D
:102BB000A5988EB1877C8EB960910201842F90E038
:102BC0009C01A5E0220F331FAA95E1F72076262B62
:102BD000209302016EB19C01220F331F220F331F7D
:102BE0002073262B2EB964B39C01220F331F207251
:102BF000262B24BB6EB19C013595279535952795DD
:102C00002870262B2EB92091020133E095958795E7
:102C10003A95E1F78871822B809302018998899A0D
:102C200080910201877880930201A5988EB1877CFC
:102C30008EB960910201852F942F9C0145E0220FEF
:102C4000331F4A95E1F72076262B209302014EB1DF
:102C50009C01220F331F220F331F2073242B2EB908
:102C600044B39C01220F331F2072242B24BB4EB18E
:102C70009C0135952795359527952870242B2EB9DD
:102C800020910201E3E095958795EA95E1F7887137
:102C9000822B809302018998899A8A9ACA14DB044C
:102CA0002CF09A2D8B2D5601C92ED82E2F2D30E0C9
:102CB000890185E0000F111F8A95E1F70076C901AF
:102CC000880F991F880F991F182F1073C901880F3B
:102CD000991FB82FB072C9019595879595958795DD
:102CE000982F987073E0359527957A95E1F7822FA4
:102CF0008871A701E5E0440F551FEA95E1F740769A
:102D00009701220F331F220F331F522F5073B70129
:102D1000660F771F60729701359527953595279532
:102D2000722F78709701E3E035952795EA95E1F7E2
:102D3000A22FA8712F2D287F30E04901880C991C03
:102D4000880C991CF82DF073F9834901880C991CA3
:102D5000E82DE072EA8349019594879495948794CD
:102D6000F82DF870FB83E3E035952795EA95E1F7B8
:102D7000E22FE8712E2E9701F3E036952795FA950C
:102D8000E1F72C7F30E04901880C991C880C991CD4
:102D9000F82DF0733F2E2901440C551CE42DE072F0
:102DA0004E2E49019594879495948794F82DF87048
:102DB0005F2EF3E035952795FA95E1F7E22FE8715C
:102DC0006E2EEE0CEE0CEE0CF12C9701220F331F41
:102DD000220F331FF22FF0737F2E9701220F331F24
:102DE0002072F701F595E795F595E795E870F3E022
:102DF000F594E794FA95E1F73E2D3871E32E1C1413
:102E00001D040CF0ABC030912E034501332309F4AF
:102E100063C030910201377830930201A5983EB12A
:102E2000377C3EB930910201309302013EB1F98105
:102E30003F2B3EB934B3FA813F2B34BB3EB1FB810B
:102E40003F2B3EB93091020132293093020189981B
:102E5000899A30910201377830930201A5983EB1EA
:102E6000377C3EB930910201309302013EB13329E3
:102E70003EB934B3342934BB3EB135293EB9309123
:102E800002013629309302018998899A3091020112
:102E9000377830930201A5983EB1377C3EB9309126
:102EA0000201309302013EB137293EB934B3322BCF
:102EB00034BB3EB13E2B3EB9309102013E293093E6
:102EC00002018998899A31E0831A910809F0A1CF0B
:102ED000F1E0CF1AD10893CF3091020137783093C7
:102EE0000201A5983EB1377C3EB930910201302BEA
:102EF000309302013EB1312B3EB934B33B2B34BB8E
:102F00003EB1392B3EB930910201382B309302018A
:102F10008998899A30910201377830930201A598F7
:102F20003EB1377C3EB930910201342B309302011F
:102F30003EB1352B3EB934B3362B34BB3EB1372BC3
:102F40003EB9309102013A2B309302018998899A57
:102F5000F1E08F1A910809F0BFCFBACF8B9AEC81BC
:102F6000FD81858D80FF0AC0878D90A186329541B5
:102F7000B1F4EC81FD81868980FF11C0EC81FD8177
:102F800002851385015011092085318521503109B1
:102F900050E040E070E060E0CF010E94D8140F9054
:102FA0000F900F900F900F90DF91CF911F910F9185
:102FB000FF90EF90DF90CF90BF90AF909F908F9059
:102FC0007F906F905F904F903F902F900895EF9279
:102FD000FF920F931F93CF93DF937C01E90177FD5D
:102FE0004DC157FD4BC1FC0180859185681779075C
:102FF0000CF044C182859385481759070CF03EC1F7
:1030000080912D03882341F0C901880F991F8E7389
:103010009927C17CC82BD92B8A019B01C7010E942B
:10302000D81480912E03882309F42FC18B988A9895
:10303000F70143A554A5809102018778809302018E
:10304000A5988EB1877C8EB960910201852F90E0A2
:103050009C0175E0220F331F7A95E1F72076262B2D
:10306000209302016EB19C01220F331F220F331FE8
:103070002073262B2EB964B39C01220F331F2072BC
:10308000262B24BB6EB19C01359527953595279548
:103090002870262B2EB920910201B3E095958795D3
:1030A000BA95E1F78871822B809302018998899AF9
:1030B00080910201877880930201A5988EB1877C68
:1030C0008EB960910201CA019C0115E0220F331FE5
:1030D0001A95E1F72076262B209302014EB19C0130
:1030E000220F331F220F331F2073242B2EB944B31A
:1030F0009C01220F331F2072242B24BB4EB19C0154
:1031000035952795359527952870242B2EB9209134
:10311000020173E0959587957A95E1F78871822B86
:10312000809302018998899A8A9A8091020187780E
:1031300080930201A5988EB1877C8EB920910201FF
:103140008D2F887F90E0209302014EB19C01220FC9
:10315000331F220F331F2073242B2EB944B39C013D
:10316000220F331F2072242B24BB4EB19C013595B6
:103170002795359527952870242B2EB9209102018B
:10318000B3E095958795BA95E1F78871822B809386
:1031900002018998899A80910201877880930201BF
:1031A000A5988EB1877C8EB920910201CE01D3E023
:1031B00096958795DA95E1F78C7F90E02093020150
:1031C0004EB19C01220F331F220F331F2073242B7B
:1031D0002EB944B39C01220F331F2072242B24BB31
:1031E0004EB19C0135952795359527952870242B50
:1031F0002EB92091020163E0959587956A95E1F7D4
:103200008871822B809302018998899A80910201AA
:10321000877880930201A5988EB1877C8EB98091C2
:103220000201CC0FCC0FCC0FD0E0809302012EB165
:10323000CE01880F991F880F991F8073822B8EB93A
:1032400024B3CE01880F991F8072822B84BB2EB1CC
:10325000CE0195958795959587958870822B8EB927
:1032600080910201A3E0D595C795AA95E1F7C871B1
:10327000C82BC09302018998899A8B9ADF91CF91CC
:103280001F910F91FF90EF900895BE01F70183A564
:1032900094A5DF91CF911F910F91FF90EF900C9427
:1032A0002112EF92FF920F931F93CF93DF9300D0E1
:1032B00000D000D01F92CDB7DEB77C01862F83707F
:1032C000F701868B962F917060FFE3C026813781CE
:1032D000F70131872087992309F4DEC024813581E5
:1032E000F70133872287823009F4DBC0833009F489
:1032F000DAC0813009F4D3C088E48A87F701858D6C
:10330000968D90FF03C02A8520582A8791FF04C01C
:103310002A8530E423272A8793FF04C02A8538E0D2
:1033200023272A87F701278D30A180FF00C1243190
:10333000F8E63F0709F0B9C09A85892F88728A8715
:103340001F82892F85958074282F2260892F90E015
:103350009595879580729927822B88878BE389873B
:10336000AE01495F5F4F63E086EB90E00E9462111F
:103370002AE230E0F70130A727A38BE290E092A782
:1033800081A74CE250E054A743A736A725A730AB4E
:1033900027A792AB81AB94AB83ABAE01465F5F4F87
:1033A00061E086E390E00E9462118A8590E0F70177
:1033B00094A383A3F701868980FF1CC0858D968D19
:1033C00092FD18C087A190A521A532A530A727A3FB
:1033D00092A781A785A596A521A932A936A725A7D9
:1033E00092AB81AB87A590A923A934A930AB27A7BD
:1033F00094AB83ABF7010285138501501109208539
:1034000031852150310950E040E070E060E0C701B3
:103410000E94D814F70166817781878D90A120E002
:103420008732F3E99F0709F420E2F701358D30FF79
:1034300039C119821A827B836C831D822E83AE016F
:103440004F5F5F4F66E083E390E00E946211198254
:103450001A82AE014F5F5F4F62E087E390E00E9407
:103460006211F701858D80FF07C050E040E060E009
:1034700083E190E00E9462112A960FB6F894DEBFB5
:103480000FBECDBFDF91CF911F910F91FF90EF90B5
:103490000895248135811CCF2681378121CF88E290
:1034A0002CCF88E92ACF88EF28CF273243E9340789
:1034B00089F41F8281E388878A858595859585951E
:1034C000859588708987AE01495F5F4F63E080EC26
:1034D00090E04CCF233689E1380749F02138E4E900
:1034E0003E0729F02131F5E13F0709F041CF8A85F8
:1034F00087FF02C081608A878A8586FF02C082605A
:103500008A878A858F73233649E1340731F0213861
:1035100084E9380721F48A858F728A8729CF21317F
:10352000354109F025CF8A858F7E806CF6CF6A857C
:10353000862F062E000C990B2339F7E73F0751F031
:10354000A8F52435E1E03E0709F45CC02032F4E53B
:103550003F07A1F540E052E0F70150A747A341E043
:1035600052E052A741A742E052E054A743A740E1EE
:1035700052E056A745A741E152E050AB47A742E1D0
:1035800052E052AB41AB43E152E054AB43AB88272E
:1035900090782632F3E93F0721F02032344509F0D4
:1035A00071C067FD846060E071E36EC0263243E95C
:1035B000340781F22930E5EB3E0761F220E230E08A
:1035C000F70130A727A321E230E032A721A722E2AA
:1035D00030E034A723A720E530E036A725A721E572
:1035E00030E030AB27A722E530E032AB21AB23E55A
:1035F00030E034AB23ABBC0166277078776280E69D
:1036000090E046C027E330E0F70136A725A726E380
:1036100030E030AB27A729E330E032AB21AB28E321
:1036200030E034AB23AB20E230E030A727A321E227
:1036300030E032A721A722E230E034A723A7F4E04C
:103640006F9FB0011124662771708827927088627D
:10365000682B792B81E090E00E9421128A85682FE7
:1036600070E075956795759567956870772783FD08
:1036700070616063F70174A363A383E090E00E942C
:10368000211298CE60E072E6682B792B80E094E0FE
:103690000E9421126A85F4E06F9FB0011124662711
:1036A0007170D8CF8339F7E79F07D9F1F0F48032F2
:1036B00044E59407B1F18338E7E79E0731F184359B
:1036C0009140F1F46150710981E390E00E94211270
:1036D00070E060E082E390E00E94211270E060E020
:1036E00083E390E00E942112C7CE863223E992073D
:1036F000C1F0893045EB9407A1F08532924911F36E
:10370000F70161A172A1626003C0F70161A172A11A
:1037100081E690E00E94211270E060E08AE690E08D
:10372000E1CFF70161A172A1626081E094E00E94A3
:10373000211270E060E084E094E0D4CFEF92FF9239
:103740000F931F93DC01ED91FC9100A0F1A1E02DFE
:10375000780101E010E019951F910F91FF90EF9013
:103760000895EF92FF920F931F93DC01ED91FC916E
:1037700000A0F1A1E02D7801890121E030E0199548
:103780001F910F91FF90EF900895089590E080E0D1
:103790000895EF92FF920F931F93DC011A960D91FB
:1037A0001C911B9718962D913C911997ED91FC91C6
:1037B00000A0F1A1E02D7B0150E040E070E060E06E
:1037C00019951F910F91FF90EF9008950E94FB268D
:1037D0001F93CF93DF9385ED8093BC008091BF0250
:1037E0009091C002A091C102B091C2020796A11DA2
:1037F000B11D23E0B695A795979587952A95D1F7A2
:103800002091BC0024FD03C01092070352C04091D8
:10381000BF025091C0026091C1027091C202452B5B
:10382000462B472B69F30097A105B10541F02AE229
:103830002A95F1F700C00197A109B109E1CF809164
:10384000BE02C1E0C093BD02882399F1D091B800B7
:103850001091BA008091BC008A7B8093BC0060E02C
:1038600084E10E94960760E085E10E94960710922D
:103870000703C09309031092080361E084E10E94EA
:10388000960761E085E10E9496078091B9008E7FDE
:103890008093B9008091B9008D7F8093B90088E44E
:1038A0008093B80085E48093BC001093BA00D09355
:1038B000B800DF91CF911F9108951F920F920FB61C
:1038C0000F9211242F933F938F939F93AF93BF93A6
:1038D0008091350390913603A0913703B09138035E
:1038E0003091340323E0230F2D3758F50196A11DA5
:1038F000B11D209334038093350390933603A09336
:103900003703B09338038091390390913A03A09123
:103910003B03B0913C030196A11DB11D8093390377
:1039200090933A03A0933B03B0933C03BF91AF91B4
:103930009F918F913F912F910F900FBE0F901F90ED
:10394000189526E8230F0296A11DB11DD2CF1F9214
:103950000F920FB60F9211240BB60F922F933F9335
:103960004F935F936F937F938F939F93AF93BF9387
:10397000EF93FF9382E493E00E94EE08FF91EF91B2
:10398000BF91AF919F918F917F916F915F914F9177
:103990003F912F910F900BBE0F900FBE0F901F9075
:1039A00018951F920F920FB60F9211240BB60F921B
:1039B0002F938F939F93EF93FF93E0915203F09196
:1039C00053038081E0915803F091590382FD1DC09B
:1039D000908180915B038F5F8F7320915C038217CE
:1039E00041F0E0915B03F0E0EE5BFC4F958F80933C
:1039F0005B03FF91EF919F918F912F910F900BBEE1
:103A00000F900FBE0F901F9018958081F2CF1F92DC
:103A10000F920FB60F9211240BB60F922F933F9374
:103A20004F935F936F937F938F939F93AF93BF93C6
:103A3000EF93FF938091B900887F803609F44DC0E1
:103A400008F040C0883209F4A7C028F5803109F495
:103A50009BC0C8F4882309F4F7C0883009F494C0E7
:103A6000FF91EF91BF91AF919F918F917F916F9156
:103A70005F914F913F912F910F900BBE0F900FBE12
:103A80000F901F901895883109F486C0803241F755
:103A90008093060314C0803409F49BC040F4803343
:103AA000B9F38833E9F68093060385ECAEC0803520
:103AB00009F483C0883509F494C0883489F60E94DB
:103AC000E81BCECF883909F48AC038F5883729F049
:103AD00050F4883611F0803719F683E0809307039D
:103AE0001092050355C0883809F479C0803919F05F
:103AF000803809F0B5CF80910503803208F06FC09F
:103B0000E091050381E08E0F809305038091BB0057
:103B1000F0E0EB51FD4F80833BC0803B39F0D0F4A7
:103B2000803A09F477C0883A09F09ACF84E080930C
:103B300007031092E4021092E302F0E0E0E019952E
:103B40008091E30281110FC081E08093E302109223
:103B5000C30209C0803C09F4A8CF883C09F4A5CF72
:103B6000883B09F07DCFE091E40281E08E0F8093E5
:103B7000E402F0E0ED53FD4F80818093BB00909113
:103B8000E4028091E30229C080912C038093BB0062
:103B900085EC8093BC0064CF90912B0380912A0325
:103BA000981758F5E0912B0381E08E0F80932B033B
:103BB000F0E0E65FFC4F8081E9CFE0912B0381E0EC
:103BC0008E0F80932B038091BB00F0E0E65FFC4FEB
:103BD000808390912B0380912A039817C8F285E87F
:103BE000D8CFE0912B0381E08E0F80932B0380913F
:103BF000BB00F0E0E65FFC4F8083809109038111F8
:103C00005ECF81E08093080384EA8093BC00109229
:103C1000070326CF85EC8093BC00109207038091A8
:103C20000503803230F4E0910503F0E0EB51FD4FE5
:103C300010826091050370E085EE92E0F0E0E0E034
:103C40001995109205030CCF1092060338CFE2E4C9
:103C5000F3E01382128288EE93E0A0E0B0E0848368
:103C60009583A683B78381E892E09183808385EC76
:103C700090E09587848784EC90E09787868780EC36
:103C800090E0918B808B81EC90E0938B828B82EC27
:103C900090E0958B848B86EC90E0978B868B118ED1
:103CA000128E138E148EEFEDF3E01382128220EF4A
:103CB00030E03583248380E491E0978386833187E5
:103CC000208793878287168A15861486178616861C
:103CD00081E0858B848B2FEF3FEF338B228B318BF1
:103CE000208B878B108E128E118E83E992E0918348
:103CF00080830895CF93DF9300D0CDB7DEB778945B
:103D000084B5826084BD84B5816084BD85B58260E0
:103D100085BD85B5816085BD80916E008160809391
:103D20006E001092810080918100826080938100FA
:103D3000809181008160809381008091800081600A
:103D4000809380008091B10084608093B100809165
:103D5000B00081608093B000809191008260809378
:103D600091008091910081608093910080919000FA
:103D70008160809390008091A10082608093A10077
:103D80008091A10081608093A1008091A00081605A
:103D90008093A00080912101826080932101809115
:103DA00021018160809321018091200181608093B5
:103DB000200180917A00846080937A0080917A005B
:103DC000826080937A0080917A00816080937A008B
:103DD00080917A00806880937A001092C100E0910F
:103DE0005203F091530382E08083E0914E03F091FF
:103DF0004F031082E0915003F09151038FEC8083C8
:103E000010925A03E0915603F091570386E08083A5
:103E1000E0915403F0915503808180618083E091AB
:103E20005403F0915503808188608083E0915403AE
:103E3000F0915503808180688083E0915403F09174
:103E4000550380818F7D808360E090E080E00E9458
:103E500030137C01883024E5920779F18032944553
:103E600061F189E8E816F80609F442C160E087E6E6
:103E700090E00E94301337E4E32E33E8F32E8734CA
:103E80009744D9F08FEE90E00E943F147B01673297
:103E9000734999F081EA90E00E94201423E6E22E13
:103EA00029E1F22E6130F1E67F0739F06F3F7607A6
:103EB000B1F596E2E92E95E1F92E0E9401131092D8
:103EC000FB031092FA03F092FF03E092FE0381E3FA
:103ED000E81680E8F80609F4DBC508F0E5C1A3E5BB
:103EE000EA16A0E2FA0609F438C608F06CC1F1E15E
:103EF000EF16F5E1FF0609F4CBC208F01CC139E961
:103F0000E316F10409F4D4C508F006C1EA94EF28D9
:103F100009F4E7C51092E4031092E303B6C26115F9
:103F20003FEF730729F480E2E82E85E1F82EC5CF34
:103F300091EAE92E95E0F92E6115704F09F4BDCF95
:103F40008FEB90E00E943F147B0197E5E91693E820
:103F5000F90609F4B2CFA1E8EA16A4E9FA0609F4D1
:103F6000ACCFE1E1EE16E5E1FE0609F4A6CFF0E202
:103F7000EF16F5E1FF06B9F226E2E21625E1F206B8
:103F800009F497CF31E8E31635E1F30609F495CF4C
:103F9000E11484E1F80609F4B0C084ED90E00E94D9
:103FA00020147B0190E1E91693E5F90609F485CF29
:103FB00087ED90E00E9420147B016133704809F482
:103FC0007CCF8EEF90E00E942014672F782F892FEE
:103FD00099277B016335704209F46FCF84E090E04C
:103FE0000E9420147B01833E39F4672B09F05DC0E9
:103FF000E12CB3EEFB2E61CF811157C061157048E3
:1040000009F053C08091020290910302A091040232
:1040100089839A83AB83AE014F5F5F4F63E089EB87
:1040200090E00E94621160E080ED90E00E94301309
:10403000F9E9EF2EF12C893909F43FCFA0E9EA2EF6
:10404000FE2C803909F439CF83ED90E00E942014D2
:10405000672F782F892F99277B016336714909F4DF
:104060002CCF83ED90E00E942014872FE62EF72EB0
:10407000E9E2EE16E2E3FE0609F41FCF835982302F
:1040800088F1783979F1773769F1763159F1F3EDC3
:10409000EF16F10409F411CF23EDE216F206E1F474
:1040A00056E8E52E54E9F52E08CF26E2E21625E182
:1040B000F20609F4FECE30EFE31639E8F30611F10B
:1040C00082E5E81685E8F80611F191E1E9169CEA27
:1040D000F90609F0B9CFF1CE60E090E080E00E94EF
:1040E00030137C0133EDE316F30609F0E6CED8CFAA
:1040F00049E8E42E42E1F42EE0CE84E1E82E88E6A1
:10410000F82EDBCEA5E3EA2EA7E7FA2ED6CEF9E805
:10411000EF2EF7E7FF2ED1CEA4E5EA16A1E0FA06CE
:1041200009F4A7C1E5E0EE16E5E1FE0609F0F2CEDE
:1041300084E090E1D8C4F1E8EF16F5E1FF0609F458
:1041400015C5C8F430E2E31635E1F30609F449C4B5
:1041500086E2E81685E1F80609F0DCCE83E194E01A
:104160009093FD038093FC030CE010E06DEEE62ECF
:1041700068E0F62EA5C192E0E91696E1F90609F489
:10418000DFC4A3E6EA16A9E1FA0609F0C3CE81E08E
:1041900080932E0383E59AE09093FD038093FC03C4
:1041A00080EE91E09093E6038093E50380E293E054
:1041B0009093E4038093E30303E510E05AE9E52ECE
:1041C00058E0F52E7DC1E9E0EE16E8E6FE0609F4BA
:1041D00093C438F525E3E21625E4F20609F40EC48B
:1041E00098F489E2E81682E3F80609F093CE83E0BA
:1041F00096E09093FD038093FC0300E410E04AE511
:10420000E42E48E0F42E5CC190E1E91693E5F9064E
:1042100009F4FFC3A8E0EA16A4E5FA0609F488CF7A
:1042200079CEE9E8EE16E7E7FE0609F424C4B8F40F
:1042300024E1E21628E6F20609F404C433E8E316A2
:1042400037E7F30609F066CE82E091E19093FD0333
:104250008093FC0368E870E086E19CE014C183E988
:10426000E81687E7F80609F4B6C496E9E91697E771
:10427000F90609F04FCE83E094E09093FD0380931C
:10428000FC0380EE91E09093E6038093E50380E4E5
:1042900091E09093E4038093E3030DE010E03AECA7
:1042A000E32E36E0F32E0CC1A8E3EA16A3E9FA06E2
:1042B00009F456C408F05FC0F5E2EF16F3E9FF0613
:1042C00009F448C0A0F530E9E316F30609F4EDC39C
:1042D000F8F497E5E91693E8F90609F01BCE83E0B8
:1042E00094E19093FD038093FC0380EE91E0909322
:1042F000E6038093E50380E491E09093E4038093E8
:10430000E30302E010E0B0E0EB2EB8E0FB2ED8C0F3
:1043100083E094E0A2E0EA16A3E9FA0609F49EC05D
:10432000E0E2EE16E3E9FE0609F402CFF3CDF9E28E
:10433000EF16F3E9FF0609F416C478F437E2E31642
:1043400033E9F30609F4E3C388E2E81683E9F806E3
:1043500009F0E0CD80E091E1D1C391E3E91693E962
:10436000F90631F0A5E3EA16A3E9FA0609F0D2CD81
:1043700080E090E1C3C3E9E8EE16E4E9FE0608F048
:1043800042C0F7E8EF16F4E9FF0608F00BC421E895
:10439000E21624E9F20609F402C4B0F480E4E81A53
:1043A00083E9F80A92E0E916F10408F0B3CD83E15D
:1043B00094E09093FD038093FC0305E610E067E52D
:1043C000E62E67E0F62E7CC0A6E8EA16A4E9FA0617
:1043D00009F0A0CD83E094E09093FD038093FC036B
:1043E00080EE91E09093E6038093E50380E491E012
:1043F0009093E4038093E3030BE310E047EDE42E96
:1044000046E0F42E5DC0E9E0EE16E5EBFE0609F4A9
:10441000E2C3C0F483E194E121E1E2162CEAF20662
:10442000E9F035E0E31635EBF30609F073CD88E0EB
:1044300090E19093FD038093FC0360EB70E082ECCD
:1044400099E021C085E0E81685ECF80681F3E114D7
:1044500093EEF90609F05ECD83E19EE09093FD03B3
:104460008093FC0303E010E07CEBE72E77E0F72E6F
:1044700027C082E090E19093FD038093FC036CE9F8
:1044800070E08AE39DE00E947314F12CE12C18C0C7
:1044900083E090E09093FD038093FC0380EE91E035
:1044A0009093E6038093E50380E491E09093E40326
:1044B0008093E30303E010E0EFEFEE2EE8E0FE2E42
:1044C0002091FD03822F82958F7090E08170992753
:1044D0009093010480930004E114F10481F069E0F9
:1044E00070E086E996E00E94B610B801C7010E940C
:1044F000B61066E070E080E996E00E94B61060E0D9
:104500008FED93E00E94511960E08FED93E00E94DF
:1045100095148091FE039091FF038838944909F027
:10452000DAC110922D0320EE3FEF50E040E070E042
:1045300060E08FED93E00E94E717E0900A04F090AE
:104540000B048091FC0380FF03C09EE2E92EF12C56
:104550008091FE039091FF038230964119F48EE220
:10456000E82EF12C10E000E030E020E050E040E0E8
:1045700070E060E08FED93E00E94D8148091FC031E
:1045800080FD10C070E060E0809106049091070407
:104590000E94211270E060E080910804909109046B
:1045A0000E9421128B988A988091020187788093CB
:1045B0000201A5988EB1877C8EB9409102018F2DA2
:1045C00090E09C0105E0220F331F0A95E1F7207669
:1045D000242B209302014EB19C01220F331F220F86
:1045E000331F2073242B2EB944B39C01220F331F99
:1045F0002072242B24BB4EB19C013595279535950F
:1046000027952870242B2EB920910201E3E095957F
:104610008795EA95E1F78871822B8093020189984A
:10462000899A80910201877880930201A5988EB1C2
:10463000877C8EB940910201C7019701F5E0220FF6
:10464000331FFA95E1F72076242B209302014EB117
:104650009701220F331F220F331F2073242B2EB9F3
:1046600044B39701220F331F2072242B24BB4EB179
:10467000970135952795359527952870242B2EB9C8
:104680002091020103E0959587950A95E1F78871DD
:10469000822B809302018998899A8A9A80910101DC
:1046A0008778809301019D988DB1877C8DB9409169
:1046B000FC035091FD038091FE039091FF0346FDA2
:1046C00013C0889A889888988898209100012CB106
:1046D00022B32CB120910001889A40FD05C0893891
:1046E000F2E19F0709F08AC28131954161F4889A0D
:1046F000889888988898809100018CB182B38CB199
:1047000080910001889ABA0164707727889A889806
:104710008898889844FF94C2209100018CB1F2B32C
:10472000ECB19091000130E055E0359527955A9510
:10473000E1F72370869586958C70822B2F2F269516
:104740002071822BA4E0EA9F900111242072822B19
:10475000E8E09E9F90011124207C822B889A889A01
:10476000889888988898209100019CB1A2B3FCB1E8
:10477000E091000130E0B5E035952795BA95E1F775
:104780002370969596959C70922B2A2F26952071D2
:10479000922BA4E0FA9F900111242072922BF8E052
:1047A000EF9F90011124207C922B889A889A8898F8
:1047B0008898889820910001ECB0A2B3FCB1E091F8
:1047C000000130E015E0359527951A95E1F7237043
:1047D000E694E6943E2D3C70E32EE22A2A2F26959D
:1047E0002071E22AA4E0FA9F900111242072E22AAB
:1047F000F8E0EF9F90011124207C2E29889AE92F60
:10480000F0E0672B09F407C2E22EF12CFE2CEE2417
:10481000EE2428EFF22203E0EE0FFF1F0A95E1F7E6
:10482000E07EF770EE2AFF2A869586958695E82A1F
:1048300080912D03882399F0C70165E096958795AF
:104840006A95E1F7807299279701369527952F7120
:104850003327822B932BF0ECEF22E82AF92A889A4F
:104860008B9A809101018867809301019D9A8DB197
:1048700088638DB940FD14C00091E9031091EA03EB
:10488000015011092091E7033091E80321503109CB
:1048900050E040E070E060E08FED93E00E94D814BB
:1048A0002FE1E2162FEFF206B1F486E08983AE0124
:1048B0004F5F5F4F61E08AE390E00E946211809158
:1048C000FC039091FD038F7E9093FD038093FC0386
:1048D00081E080932D0361E08FED93E00E945119F8
:1048E00070E060E08FED93E00E94C91B8091E703C8
:1048F0009091E80397FD01969595879590934103D4
:10490000809340038091E9039091EA0397FD01961B
:104910009595879590933F0380933E0310E401E0C3
:1049200080917B00886080937B0010937C00809155
:104930007A00806480937A0080917A0086FDFCCFB3
:1049400080917800909179002091330321110BC060
:10495000893C910544F00093330370E060E08FEDF3
:1049600093E00E94C91B80913303882309F430C26D
:104970008FB7F89440913503509136036091370317
:10498000709138038FBF80910002909101028F3F98
:10499000980709F0C9C110920102109200024093D9
:1049A0002F0350933003609331037093320370E010
:1049B00060E08FED93E00E94C91BE0910002F0914E
:1049C000010233E0EE0FFF1F3A95E1F7EB5FFD4F79
:1049D00062817381808191810E94DD0F0E947D0937
:1049E0009FCF83E194E09093FD038093FC0306E066
:1049F00010E079EFE72E78E0F72E62CD80E090E1CD
:104A00009093FD038093FC036CE970E08EE99CE0D9
:104A10003ACD83E19EE09093FD038093FC0380EE0A
:104A200091E09093E6038093E50380E491E0909316
:104A3000E4038093E30302E010E038E5E32E38E07E
:104A4000F32E3ECD83E094E09093FD038093FC032E
:104A500080EE91E09093E6038093E50380E491E09B
:104A60009093E4038093E30303E010E025E5E22E56
:104A700028E0F22E25CD83E194E09093FD0380930E
:104A8000FC0301E410E094E1E92E98E0F92E18CD42
:104A900083E194E19093FD038093FC0302E110E035
:104AA00082E0E82E88E0F82E0BCD83E194E119CC6A
:104AB00083E194E19093FD038093FC0380EE91E009
:104AC0009093E6038093E50380E491E09093E40300
:104AD0008093E3030DE110E0A3EEEA2EA7E0FA2EA7
:104AE000EFCC80E091E19093FD038093FC0368EDAF
:104AF00070E08EE39BE0C7CC82E091E19093FD03F0
:104B00008093FC036CEC70E082E79AE0BCCC83E01D
:104B100094E09093FD038093FC0380E991E09093EF
:104B2000E6038093E50380EF90E09093E4038093A5
:104B3000E3030EE110E0F5ECEF2EF7E0FF2EC0CC22
:104B400083E094E09093FD038093FC0306E010E083
:104B5000EFEBEE2EE7E0FE2EB3CC87E194E17ECCC6
:104B600083E194E07BCC83E096E178CC83E194E030
:104B70009093FD038093FC0380EE91E09093E60315
:104B80008093E50380E491E09093E4038093E30352
:104B900005E410E052E1E52E57E0F52E91CC87E0D8
:104BA00094E0E6CF83E194E09093FD038093FC03CF
:104BB00080EE91E09093E6038093E50380E491E03A
:104BC0009093E4038093E3030BE210E02FE9E22EDD
:104BD00026E0F22E75CC80E090E19093FD03809367
:104BE000FC0360EC70E082E099E00E94731480E9BD
:104BF00091E09093E6038093E50347CC889A8898E8
:104C000088988898209100012CB122B32CB1209172
:104C10000001889A69CDE82EF12CFE2CEE24EE24BA
:104C200038EFF322B3E0EE0FFF1FBA95E1F7E07E15
:104C3000F770EE2AFF2A269526952695E22AF8CDCA
:104C4000909100010CB112B3BCB1A0910001889AFF
:104C5000889A88988898889820910001ECB1E2B2EF
:104C6000DCB08091000130E055E0359527955A95EC
:104C7000E1F723703327F0E0F595E795F595E79593
:104C8000EC70FF272E2B3F2BF12CF594E794E0E1FD
:104C9000EE22FF24E22AF32AF4E0DF9E90011124A1
:104CA00020723327E22AF32A28E0829FF0011124A0
:104CB000E07CFF27EE2AFF2A889A892F90E0F5E012
:104CC00095958795FA95E1F78370069506950C7092
:104CD000802B16951071812B94E0B99F90011124BF
:104CE0002072822BE8E0AE9FD0011124A07C8A2B99
:104CF000F82A43FF03C0FE24EF24FE24672B09F4A7
:104D000097CDC701807E97709701232F3327269573
:104D100026952695822B932BFE2CEE24FF0CFF0C60
:104D2000FF0CE82AF92A84CDFC0123E0EE0FFF1FD7
:104D30002A95E1F7EB5FFD4FC0902F03D090300331
:104D4000E0903103F09032034A015B018C189D081A
:104D5000AE08BF087501640184809580A680B78085
:104D6000C814D904EA04FB0438F101968F30910588
:104D700054F5909301028093000240932F035093C7
:104D80003003609331037093320370E060E08FED85
:104D900093E00E94C91BE0910002F091010283E0C0
:104DA000EE0FFF1F8A95E1F7EB5FFD4F6281738184
:104DB000808191810E94DD0F6AE070E080E090E0E8
:104DC0000E9447080BCE1092010210920002D5CF2C
:104DD00070E060E08FED93E00E94C91B62E370E039
:104DE00080E090E0EDCFEE0FFF1F881F8BBF079094
:104DF000F691E02D199481E090E0F8940C9400274E
:104E0000F894FFCFFFFFFF835728000000C409007C
:104E100000D8FF0000C409000000000000D0070017
:104E2000002800D8FFC409000000000000D00700DF
:104E300000D8FFD8FFC409000028000000C4090002
:104E400000D8FF0000C409000000000000D00700E7
:104E5000002800D8FFC409000000000000D00700AF
:104E600000D8FFD8FFC409000028002800C40900AA
:104E70000000000000D0070000D8FF2800C409008F
:104E8000000000000010097A08A7085D09D808B6DC
:104E900008CA0800000000390C7A08C61BC51BE7C9
:104EA0001795070310B60ED20EC60E0A10950751BD
:104EB000199514B11B9E1B6D15C91B6A0D0B0D00B6
:104EC000FFFFFFFFFFFFFFFFFFFFFFFFFFFFFFFFF2
:104ED000FFFFFFFFFFFFFFFFFFFFFFFFFFFFFFFFE2
:104EE000FFFFFFFFFFFFFFFFFFFFFFFFFFFFFFFFD2
:104EF000FFFFFFFFFFFFFFFFFFFFFFFFFFFFFFFFC2
:104F0000C093E90EB801C901DF91CF911F910F91B4
:104F10000C94453F0E942E3F85ED8093BC0080910C
:104F2000770D9091780DA091790DB0917A0D07963B
:104F3000A11DB11D23E0B695A795979587952A9554
:104F4000D1F72091BC0024FD03C01092750D089587
:104F50004091770D5091780D6091790D70917A0D97
:104F6000452B462B472B69F30097A105B10541F06E
:104F70002AE22A95F1F700C00197A109B109E1CF12
:104F80008091760D0C944C1F1F920F920FB60F92CA
:104F900011242F933F938F939F93AF93BF9380914F
:104FA000240D9091250DA091260DB091270D3091E3
:104FB000230D23E0230F2D3758F50196A11DB11DB8
:104FC0002093230D8093240D9093250DA093260DFF
:104FD000B093270D8091280D9091290DA0912A0D55
:104FE000B0912B0D0196A11DB11D8093280D9093BA
:104FF000290DA0932A0DB0932B0DBF91AF919F91D6
:105000008F913F912F910F900FBE0F901F90189589
:1050100026E8230F0296A11DB11DD2CF1F920F9239
:105020000FB60F9211240BB60F922F933F934F930D
:105030005F936F937F938F939F93AF93BF93EF9300
:10504000FF938FE99DE00E946D0BFF91EF91BF915F
:10505000AF919F918F917F916F915F914F913F9110
:105060002F910F900BBE0F900FBE0F901F901895B1
:105070001F920F920FB60F9211240BB60F922F931F
:105080008F939F93EF93FF93E091AF0DF091B00D4D
:105090008081E091B50DF091B60D82FD1DC090812B
:1050A0008091B80D8F5F8F732091B90D821741F0F9
:1050B000E091B80DF0E0E156F24F958F8093B80D76
:1050C000FF91EF919F918F912F910F900BBE0F90B9
:1050D0000FBE0F901F9018958081F2CF1F920F92F4
:1050E0000FB60F9211240BB60F922F933F934F934D
:1050F0005F936F937F938F939F93AF93BF93EF9340
:10510000FF938CE39EE00E946D0BFF91EF91BF91A6
:10511000AF919F918F917F916F915F914F913F914F
:105120002F910F900BBE0F900FBE0F901F901895F0
:105130001F920F920FB60F9211240BB60F922F935E
:105140008F939F93EF93FF93E0914C0EF0914D0E50
:105150008081E091520EF091530E82FD1DC090812E
:105160008091550E8F5F8F732091560E821741F0FC
:10517000E091550EF0E0E45CF14F958F8093550E71
:10518000FF91EF919F918F912F910F900BBE0F90F8
:105190000FBE0F901F9018958081F2CF1F920F9233
:1051A0000FB60F9211240BB60F922F933F934F938C
:1051B0005F936F937F938F939F93AF93BF93EF937F
:1051C000FF93E0914E0BF0914F0B309749F0A6857D
:1051D000B7858585968D91FF16C09C918923B1F482
:1051E000FF91EF91BF91AF919F918F917F916F91BF
:1051F0005F914F913F912F910F900BBE0F900FBE7B
:105200000F901F9018959C91892351F7A389B48919
:105210009C918589809589238C93868997890197AC
:10522000F1F7608D718DA685B785558538E020E052
:10523000CB010197F1F7822F90E095958795282F64
:105240004C91452309F02068315091F7868D81FDFE
:10525000209580914D0B90E001968F7399273091A6
:105260004C0B381799F0A0914D0BB0E0AA5FB44FEA
:105270002C9380934D0B828D938D0197F1F7A38929
:10528000B4898C919589892B8C93AACF868D816066
:10529000868FF1CF1F920F920FB60F9211240BB68B
:1052A0000F922F933F934F935F936F937F938F93BF
:1052B0009F93AF93BF93EF93FF938091B900887F43
:1052C000803609F44DC008F040C0883209F4A9C006
:1052D00028F5803109F49DC0C8F4882309F4FBC087
:1052E000883009F496C0FF91EF91BF91AF919F91E3
:1052F0008F917F916F915F914F913F912F910F907F
:105300000BBE0F900FBE0F901F901895883109F4B7
:1053100088C0803241F78093730D14C0803409F443
:105320009DC040F48033B9F38833E9F68093730D60
:1053300085ECB0C0803509F485C0883509F496C085
:10534000883489F60E948C27CECF883909F48CC026
:1053500038F5883729F050F4883611F0803719F67F
:1053600083E08093750D1092050B57C0883809F4BF
:105370007BC0803919F0803809F0B5CF8091050BDA
:10538000803208F071C0E091050B81E08E0F8093B0
:10539000050B8091BB00F0E0EB51F54F80833DC0E1
:1053A000803B39F0E0F4803A09F479C0883A09F09A
:1053B0009ACF84E08093750D1092E40A1092E30A6C
:1053C000E091520BF091530B19958091E30A8111F2
:1053D0000FC081E08093E30A1092C30A09C0803CA9
:1053E00009F4A6CF883C09F4A3CF883B09F07BCF12
:1053F000E091E40A81E08E0F8093E40AF0E0ED533F
:10540000F54F80818093BB009091E40A8091E30A7C
:1054100029C08091500D8093BB0085EC8093BC0027
:1054200062CF9091720D8091710D981758F5E091AF
:10543000720D81E08E0F8093720DF0E0EF5AF24F03
:105440008081E9CFE091720D81E08E0F8093720D23
:105450008091BB00F0E0EF5AF24F80839091720D83
:105460008091710D9817C8F285E8D8CFE091720D40
:1054700081E08E0F8093720D8091BB00F0E0EF5AB7
:10548000F24F80838091740D81115CCF81E0809315
:105490004F0D84EA8093BC001092750D24CF85ECEB
:1054A0008093BC001092750D8091050B803230F412
:1054B000E091050BF0E0EB51F54F10826091050B88
:1054C00070E0E091500BF091510B85EE9AE0199548
:1054D0001092050B08CF1092730D34CF1092A20DCD
:1054E0001092A10D88EE93E0A0E0B0E08093A30DB0
:1054F0009093A40DA093A50DB093A60D23EC38E0D6
:105500003093A00D20939F0D4DEC50E05093AC0DC7
:105510004093AB0D4CEC50E05093AE0D4093AD0D6D
:1055200048EC50E05093B00D4093AF0D49EC50E083
:105530005093B20D4093B10D4AEC50E05093B40D2E
:105540004093B30D4EEC50E05093B60D4093B50D23
:105550001092B80D1092B90D1092BA0D1092BB0DA9
:1055600010923F0E10923E0E8093400E9093410E8B
:10557000A093420EB093430E30933D0E20933C0E09
:1055800025EC30E03093490E2093480E24EC30E0B7
:1055900030934B0E20934A0E20EC30E030934D0EAA
:1055A00020934C0E21EC30E030934F0E20934E0EA2
:1055B00022EC30E03093510E2093500E26EC30E078
:1055C0003093530E2093520E1092550E1092560E99
:1055D0001092570E1092580E1092DC0E1092DB0EA5
:1055E0008093DD0E9093DE0EA093DF0EB093E00E5D
:1055F00025ED38E03093DA0E2093D90E1092330F58
:105600001092320F40EF50E05093350F4093340F1B
:1056100020E431E03093370F2093360F5093390F49
:105620004093380F30933B0F20933A0F1092460F60
:1056300010923D0F10923C0F10923F0F10923E0FB0
:1056400061E06093450F6093440F2FEF3FEF30937D
:10565000430F2093420F3093410F2093400F6093EC
:10566000470F1092480F10924A0F1092490F29EFDE
:1056700038E03093310F2093300F1092140F1092B6
:10568000130F8093150F9093160FA093170FB093DD
:10569000180F87EE98E09093120F8093110F1092DD
:1056A000280F1092270F10922A0F1092290F109294
:1056B0002C0F10922B0F10922E0F10922D0F809105
:1056C0002F0F8E7F8D7F80932F0F86958170682797
:1056D00084E40E947B0861E084E40E94A908E0E47D
:1056E000FFE0E491E093210FEAEFFEE0E491F0E0C7
:1056F000EE0FFF1FE456F14F859194919093230F85
:105700008093220F60E085E40E94A90880912F0F0A
:1057100081FD04C061E085E40E947B0885E48093FC
:105720001D0FE1E4FFE0E491E0931E0FEBEFFEE0DC
:10573000E491F0E0EE0FFF1FEE57F14F8591949149
:105740009093200F80931F0F84EF91E0A0E0B0E0D2
:105750008093F10E9093F20EA093F30EB093F40E9B
:105760008AE0E2EBF8E0AFEFBEE001900D928A959F
:10577000E1F71092090F82E080930A0F10920F0F49
:105780001092100F1092E60E1092E50E1092E80E95
:105790001092E70E1092EA0E1092E90E90E080E06F
:1057A0000E9424272091E50E3091E60E811113C04E
:1057B0002115310519F0C9010E94C43D1092E60E71
:1057C0001092E50E1092EA0E1092E90E1092E80E79
:1057D0001092E70E08951092EA0E1092E90E6FE211
:1057E00079E0C9010C94453FCF93DF93CDB7DEB785
:1057F00061970FB6F894DEBF0FBECDBF789484B525
:10580000826084BD84B5816084BD85B5826085BDBC
:1058100085B5816085BD80916E00816080936E004A
:10582000109281008091810082608093810080913C
:1058300081008160809381008091800081608093ED
:1058400080008091B10084608093B1008091B000AD
:1058500081608093B000809191008260809391007C
:10586000809191008160809391008091900081608F
:10587000809390008091A10082608093A10080912C
:10588000A10081608093A1008091A000816080933D
:10589000A0008091210182608093210180912101EB
:1058A000816080932101809120018160809320019B
:1058B00080917A00846080937A0080917A0082607F
:1058C00080937A0080917A00816080937A00809141
:1058D0007A00806880937A001092C1008CE39EE089
:1058E0000E94D6078FE99DE00E94D60710922E0DE8
:1058F00010922D0D10927C0D10929E0D0E942E1F65
:105900008DEE9AE09093530B8093520B8EEE9AE0BB
:105910009093510B8093500B60E08EE30E94A90896
:1059200060E090E080E00E944E0F8C01883024E51A
:10593000920751F1803234E5930731F18938994863
:1059400009F41DC160E087E690E00E944E0F07E475
:1059500013E887349744C1F08FEE90E00E945D1009
:105960008B01073283E9180779F081EA90E00E9401
:105970003E1003E619E1613091E6790729F06F3FA7
:10598000760791F506E215E10E941F0F10924C0F69
:1059900010924B0F1093500F00934F0F0133E0E81C
:1059A0001E0709F4F7C508F0AAC1033520E2120763
:1059B00009F446C608F042C1013145E1140709F473
:1059C00070C208F0FCC00939110509F4F2C508F0ED
:1059D000E2C080E091E10130110509F4E7C01092C6
:1059E000350F1092340F5AC26115BFEF7B0719F4BF
:1059F00000E215E1C9CF01EA15E06115704F21F20F
:105A00008FEB90E00E945D108B016735F3E87F0714
:105A100009F4BACF613824E9720709F4B5CF6131CE
:105A200035E1730709F4B0CF603245E1740701F343
:105A30006632754109F4A6CF013885E1180709F4EB
:105A4000A3CF0115144109F49DC084ED90E00E949C
:105A50003E108B016031734509F496CF87ED90E0DD
:105A60000E943E108B016133704809F48DCF8EEF98
:105A700090E00E943E10072F182F292F332703355F
:105A8000E0E21E0709F480CF84E090E00E943E101F
:105A90008B01833E31F4672B09F054C000E013EE14
:105AA00073CF81114FC06115704809F04BC08091D0
:105AB000BC089091BD08A091BE0889839A83AB83EE
:105AC000AE014F5F5F4F63E089EB90E00E94800D75
:105AD00060E080ED90E00E944E0F09E910E0893906
